{
  "contractName": "MilkSupplyChain",
  "abi": [
    {
      "anonymous": false,
      "inputs": [
        {
          "indexed": false,
          "internalType": "string",
          "name": "serialNumber",
          "type": "string"
        },
        {
          "indexed": false,
          "internalType": "enum MilkSupplyChain.MilkBoxStatus",
          "name": "status",
          "type": "uint8"
        }
      ],
      "name": "BoxStatusUpdated",
      "type": "event"
    },
    {
      "anonymous": false,
      "inputs": [
        {
          "indexed": false,
          "internalType": "string",
          "name": "serialNumber",
          "type": "string"
        },
        {
          "indexed": false,
          "internalType": "string",
          "name": "distributor",
          "type": "string"
        }
      ],
      "name": "DistributorUpdated",
      "type": "event"
    },
    {
      "anonymous": false,
      "inputs": [
        {
          "indexed": false,
          "internalType": "uint256",
          "name": "batchId",
          "type": "uint256"
        }
      ],
      "name": "MilkBatchApproved",
      "type": "event"
    },
    {
      "anonymous": false,
      "inputs": [
        {
          "indexed": false,
          "internalType": "uint256",
          "name": "batchId",
          "type": "uint256"
        },
        {
          "indexed": false,
          "internalType": "string",
          "name": "batchName",
          "type": "string"
        },
        {
          "indexed": false,
          "internalType": "string",
          "name": "milkingDate",
          "type": "string"
        },
        {
          "indexed": false,
          "internalType": "uint256",
          "name": "volume",
          "type": "uint256"
        }
      ],
      "name": "MilkBatchCreated",
      "type": "event"
    },
    {
      "anonymous": false,
      "inputs": [
        {
          "indexed": false,
          "internalType": "string",
          "name": "serialNumber",
          "type": "string"
        },
        {
          "indexed": false,
          "internalType": "uint256",
          "name": "batchId",
          "type": "uint256"
        }
      ],
      "name": "MilkBoxCreated",
      "type": "event"
    },
    {
      "anonymous": false,
      "inputs": [
        {
          "indexed": false,
          "internalType": "string",
          "name": "serialNumber",
          "type": "string"
        }
      ],
      "name": "ProcessingBoxApproved",
      "type": "event"
    },
    {
      "anonymous": false,
      "inputs": [
        {
          "indexed": false,
          "internalType": "string",
          "name": "serialNumber",
          "type": "string"
        }
      ],
      "name": "TransportBoxApproved",
      "type": "event"
    },
    {
      "inputs": [
        {
          "internalType": "uint256",
          "name": "",
          "type": "uint256"
        }
      ],
      "name": "milkBatches",
      "outputs": [
        {
          "internalType": "uint256",
          "name": "batchId",
          "type": "uint256"
        },
        {
          "internalType": "string",
          "name": "batchName",
          "type": "string"
        },
        {
          "internalType": "string",
          "name": "milkingDate",
          "type": "string"
        },
        {
          "internalType": "uint256",
          "name": "volume",
          "type": "uint256"
        },
        {
          "internalType": "string",
          "name": "farmOwner",
          "type": "string"
        },
        {
          "internalType": "string",
          "name": "approvedBy",
          "type": "string"
        },
        {
          "internalType": "enum MilkSupplyChain.BatchStatus",
          "name": "status",
          "type": "uint8"
        }
      ],
      "stateMutability": "view",
      "type": "function",
      "constant": true
    },
    {
      "inputs": [
        {
          "internalType": "string",
          "name": "",
          "type": "string"
        }
      ],
      "name": "milkBoxes",
      "outputs": [
        {
          "internalType": "string",
          "name": "serialNumber",
          "type": "string"
        },
        {
          "internalType": "uint256",
          "name": "batchId",
          "type": "uint256"
        },
        {
          "internalType": "bool",
          "name": "processingApproved",
          "type": "bool"
        },
        {
          "internalType": "bool",
          "name": "transportApproved",
          "type": "bool"
        },
        {
          "internalType": "string",
          "name": "distributorAddress",
          "type": "string"
        },
        {
          "internalType": "enum MilkSupplyChain.MilkBoxStatus",
          "name": "status",
          "type": "uint8"
        },
        {
          "internalType": "string",
          "name": "owner",
          "type": "string"
        },
        {
          "internalType": "string",
          "name": "manufacturer",
          "type": "string"
        },
        {
          "internalType": "string",
          "name": "boxName",
          "type": "string"
        },
        {
          "internalType": "string",
          "name": "manufacturingDate",
          "type": "string"
        },
        {
          "internalType": "string",
          "name": "expirationDate",
          "type": "string"
        }
      ],
      "stateMutability": "view",
      "type": "function",
      "constant": true
    },
    {
      "inputs": [],
      "name": "nextBatchId",
      "outputs": [
        {
          "internalType": "uint256",
          "name": "",
          "type": "uint256"
        }
      ],
      "stateMutability": "view",
      "type": "function",
      "constant": true
    },
    {
      "inputs": [
        {
          "internalType": "uint256",
          "name": "",
          "type": "uint256"
        }
      ],
      "name": "participantAddresses",
      "outputs": [
        {
          "internalType": "address",
          "name": "",
          "type": "address"
        }
      ],
      "stateMutability": "view",
      "type": "function",
      "constant": true
    },
    {
      "inputs": [
        {
          "internalType": "address",
          "name": "",
          "type": "address"
        }
      ],
      "name": "participantRegistered",
      "outputs": [
        {
          "internalType": "bool",
          "name": "",
          "type": "bool"
        }
      ],
      "stateMutability": "view",
      "type": "function",
      "constant": true
    },
    {
      "inputs": [
        {
          "internalType": "address",
          "name": "",
          "type": "address"
        }
      ],
      "name": "participants",
      "outputs": [
        {
          "internalType": "string",
          "name": "name",
          "type": "string"
        },
        {
          "internalType": "string",
          "name": "location",
          "type": "string"
        },
        {
          "internalType": "string",
          "name": "phone",
          "type": "string"
        },
        {
          "internalType": "string",
          "name": "role",
          "type": "string"
        },
        {
          "internalType": "bool",
          "name": "isActive",
          "type": "bool"
        }
      ],
      "stateMutability": "view",
      "type": "function",
      "constant": true
    },
    {
      "inputs": [
        {
          "internalType": "address",
          "name": "_participant",
          "type": "address"
        },
        {
          "internalType": "string",
          "name": "_name",
          "type": "string"
        },
        {
          "internalType": "string",
          "name": "_location",
          "type": "string"
        },
        {
          "internalType": "string",
          "name": "_phone",
          "type": "string"
        },
        {
          "internalType": "string",
          "name": "_role",
          "type": "string"
        },
        {
          "internalType": "bool",
          "name": "_isActive",
          "type": "bool"
        }
      ],
      "name": "setParticipant",
      "outputs": [],
      "stateMutability": "nonpayable",
      "type": "function"
    },
    {
      "inputs": [],
      "name": "getParticipants",
      "outputs": [
        {
          "components": [
            {
              "internalType": "string",
              "name": "name",
              "type": "string"
            },
            {
              "internalType": "string",
              "name": "location",
              "type": "string"
            },
            {
              "internalType": "string",
              "name": "phone",
              "type": "string"
            },
            {
              "internalType": "string",
              "name": "role",
              "type": "string"
            },
            {
              "internalType": "bool",
              "name": "isActive",
              "type": "bool"
            }
          ],
          "internalType": "struct MilkSupplyChain.Participant[]",
          "name": "",
          "type": "tuple[]"
        }
      ],
      "stateMutability": "view",
      "type": "function",
      "constant": true
    },
    {
      "inputs": [
        {
          "internalType": "string",
          "name": "_serialNumber",
          "type": "string"
        },
        {
          "internalType": "string",
          "name": "_boxName",
          "type": "string"
        },
        {
          "internalType": "string",
          "name": "_manufacturingDate",
          "type": "string"
        },
        {
          "internalType": "string",
          "name": "_expirationDate",
          "type": "string"
        }
      ],
      "name": "updateMilkProduct",
      "outputs": [],
      "stateMutability": "nonpayable",
      "type": "function"
    },
    {
      "inputs": [
        {
          "internalType": "uint256",
          "name": "_batchId",
          "type": "uint256"
        },
        {
          "internalType": "string",
          "name": "_batchName",
          "type": "string"
        },
        {
          "internalType": "string",
          "name": "_milkingDate",
          "type": "string"
        },
        {
          "internalType": "uint256",
          "name": "_volume",
          "type": "uint256"
        },
        {
          "internalType": "string",
          "name": "_farmOwner",
          "type": "string"
        },
        {
          "internalType": "string",
          "name": "_approvedBy",
          "type": "string"
        }
      ],
      "name": "updateMilkBatch",
      "outputs": [],
      "stateMutability": "nonpayable",
      "type": "function"
    },
    {
      "inputs": [
        {
          "internalType": "string",
          "name": "_batchName",
          "type": "string"
        },
        {
          "internalType": "string",
          "name": "_milkingDate",
          "type": "string"
        },
        {
          "internalType": "uint256",
          "name": "_volume",
          "type": "uint256"
        },
        {
          "internalType": "string",
          "name": "_farmOwner",
          "type": "string"
        },
        {
          "internalType": "string",
          "name": "_approvedBy",
          "type": "string"
        }
      ],
      "name": "createMilkBatch",
      "outputs": [],
      "stateMutability": "nonpayable",
      "type": "function"
    },
    {
      "inputs": [
        {
          "internalType": "uint256",
          "name": "_batchId",
          "type": "uint256"
        },
        {
          "internalType": "string",
          "name": "_approvedBy",
          "type": "string"
        }
      ],
      "name": "approveMilking",
      "outputs": [],
      "stateMutability": "nonpayable",
      "type": "function"
    },
    {
      "inputs": [
        {
          "internalType": "uint256",
          "name": "_batchId",
          "type": "uint256"
        },
        {
          "internalType": "string",
          "name": "_serialNumber",
          "type": "string"
        },
        {
          "internalType": "string",
          "name": "_boxName",
          "type": "string"
        },
        {
          "internalType": "string",
          "name": "_manufacturingDate",
          "type": "string"
        },
        {
          "internalType": "string",
          "name": "_expirationDate",
          "type": "string"
        },
        {
          "internalType": "string",
          "name": "_manufacturer",
          "type": "string"
        },
        {
          "internalType": "string",
          "name": "_distributorAddress",
          "type": "string"
        }
      ],
      "name": "createMilkBox",
      "outputs": [],
      "stateMutability": "nonpayable",
      "type": "function"
    },
    {
      "inputs": [
        {
          "internalType": "string",
          "name": "_serialNumber",
          "type": "string"
        }
      ],
      "name": "approveProcessingBox",
      "outputs": [],
      "stateMutability": "nonpayable",
      "type": "function"
    },
    {
      "inputs": [
        {
          "internalType": "string",
          "name": "_serialNumber",
          "type": "string"
        },
        {
          "internalType": "string",
          "name": "_distributorAddress",
          "type": "string"
        },
        {
          "internalType": "string",
          "name": "_owner",
          "type": "string"
        }
      ],
      "name": "updateDistributor",
      "outputs": [],
      "stateMutability": "nonpayable",
      "type": "function"
    },
    {
      "inputs": [
        {
          "internalType": "string",
          "name": "_serialNumber",
          "type": "string"
        }
      ],
      "name": "approveTransportBox",
      "outputs": [],
      "stateMutability": "nonpayable",
      "type": "function"
    },
    {
      "inputs": [
        {
          "internalType": "string",
          "name": "_serialNumber",
          "type": "string"
        },
        {
          "internalType": "enum MilkSupplyChain.MilkBoxStatus",
          "name": "_newStatus",
          "type": "uint8"
        }
      ],
      "name": "updateBoxStatusAtRetail",
      "outputs": [],
      "stateMutability": "nonpayable",
      "type": "function"
    },
    {
      "inputs": [
        {
          "internalType": "string",
          "name": "_serialNumber",
          "type": "string"
        }
      ],
      "name": "getMilkBoxDetails",
      "outputs": [
        {
          "components": [
            {
              "internalType": "string",
              "name": "serialNumber",
              "type": "string"
            },
            {
              "internalType": "uint256",
              "name": "batchId",
              "type": "uint256"
            },
            {
              "internalType": "bool",
              "name": "processingApproved",
              "type": "bool"
            },
            {
              "internalType": "bool",
              "name": "transportApproved",
              "type": "bool"
            },
            {
              "internalType": "string",
              "name": "distributorAddress",
              "type": "string"
            },
            {
              "internalType": "uint8",
              "name": "boxStatus",
              "type": "uint8"
            },
            {
              "internalType": "string",
              "name": "owner",
              "type": "string"
            },
            {
              "internalType": "string",
              "name": "manufacturer",
              "type": "string"
            },
            {
              "internalType": "string",
              "name": "boxName",
              "type": "string"
            },
            {
              "internalType": "string",
              "name": "manufacturingDate",
              "type": "string"
            },
            {
              "internalType": "string",
              "name": "expirationDate",
              "type": "string"
            },
            {
              "internalType": "string",
              "name": "batchName",
              "type": "string"
            },
            {
              "internalType": "string",
              "name": "milkingDate",
              "type": "string"
            },
            {
              "internalType": "uint256",
              "name": "volume",
              "type": "uint256"
            },
            {
              "internalType": "string",
              "name": "farmOwner",
              "type": "string"
            },
            {
              "internalType": "string",
              "name": "approvedBy",
              "type": "string"
            },
            {
              "internalType": "uint8",
              "name": "batchStatus",
              "type": "uint8"
            }
          ],
          "internalType": "struct MilkSupplyChain.MilkBoxDetail",
          "name": "",
          "type": "tuple"
        }
      ],
      "stateMutability": "view",
      "type": "function",
      "constant": true
    }
  ],
  "bytecode": "0x6080604052600160045534801561001557600080fd5b506153ea806100256000396000f3fe608060405234801561001057600080fd5b50600436106101165760003560e01c8063600c3e44116100a2578063d301246411610071578063d3012464146102f9578063d3169bd314610315578063e849fb6b14610331578063e94aabb61461036b578063f5c1b0a61461038757610116565b8063600c3e44146102735780636133f02f1461028f5780638462a7f8146102ab578063aa853170146102c957610116565b80633827cca1116100e95780633827cca1146101b75780634c143675146101d35780634e266aea146101ef57806354ffbddb146102255780635aa68ac01461025557610116565b806309e69ede1461011b5780631c79d9f01461014f5780631d7333371461016b5780632b14760b1461019b575b600080fd5b61013560048036038101906101309190613b98565b6103a3565b604051610146959493929190614ba6565b60405180910390f35b61016960048036038101906101649190613f99565b610606565b005b61018560048036038101906101809190613b98565b610880565b6040516101929190614b02565b60405180910390f35b6101b560048036038101906101b09190613e99565b6108a0565b005b6101d160048036038101906101cc9190613ceb565b610bc5565b005b6101ed60048036038101906101e89190613caa565b610e43565b005b61020960048036038101906102049190613f70565b611089565b60405161021c9796959493929190614f91565b60405180910390f35b61023f600480360381019061023a9190613f70565b6112f8565b60405161024c9190614ac5565b60405180910390f35b61025d611337565b60405161026a9190614ae0565b60405180910390f35b61028d60048036038101906102889190613caa565b61173c565b005b6102a960048036038101906102a4919061411b565b6119f2565b005b6102b3611d52565b6040516102c09190614f23565b60405180910390f35b6102e360048036038101906102de9190613caa565b611d58565b6040516102f09190614f01565b60405180910390f35b610313600480360381019061030e9190613d3f565b6126e5565b005b61032f600480360381019061032a9190613dd6565b6129d1565b005b61034b60048036038101906103469190613caa565b612d2c565b6040516103629b9a99989796959493929190614c45565b60405180910390f35b61038560048036038101906103809190613bc1565b61317b565b005b6103a1600480360381019061039c9190613fed565b61338e565b005b60006020528060005260406000206000915090508060000180546103c6906151ef565b80601f01602080910402602001604051908101604052809291908181526020018280546103f2906151ef565b801561043f5780601f106104145761010080835404028352916020019161043f565b820191906000526020600020905b81548152906001019060200180831161042257829003601f168201915b505050505090806001018054610454906151ef565b80601f0160208091040260200160405190810160405280929190818152602001828054610480906151ef565b80156104cd5780601f106104a2576101008083540402835291602001916104cd565b820191906000526020600020905b8154815290600101906020018083116104b057829003601f168201915b5050505050908060020180546104e2906151ef565b80601f016020809104026020016040519081016040528092919081815260200182805461050e906151ef565b801561055b5780601f106105305761010080835404028352916020019161055b565b820191906000526020600020905b81548152906001019060200180831161053e57829003601f168201915b505050505090806003018054610570906151ef565b80601f016020809104026020016040519081016040528092919081815260200182805461059c906151ef565b80156105e95780601f106105be576101008083540402835291602001916105e9565b820191906000526020600020905b8154815290600101906020018083116105cc57829003601f168201915b5050505050908060040160009054906101000a900460ff16905085565b6000803373ffffffffffffffffffffffffffffffffffffffff1673ffffffffffffffffffffffffffffffffffffffff16815260200190815260200160002060040160009054906101000a900460ff16610694576040517f08c379a000000000000000000000000000000000000000000000000000000000815260040161068b90614e41565b60405180910390fd5b6040518060400160405280601381526020017f4e5554524954494f4e5f415554484f5249545900000000000000000000000000815250805190602001206000803373ffffffffffffffffffffffffffffffffffffffff1673ffffffffffffffffffffffffffffffffffffffff16815260200190815260200160002060030160405161071f9190614a97565b604051809103902014610767576040517f08c379a000000000000000000000000000000000000000000000000000000000815260040161075e90614e01565b60405180910390fd5b6000600360008481526020019081526020016000206000015414156107c1576040517f08c379a00000000000000000000000000000000000000000000000000000000081526004016107b890614d41565b60405180910390fd5b6000600360008481526020019081526020016000209050818160050190805190602001906107f092919061397a565b5060018160060160006101000a81548160ff0219169083600381111561083f577f4e487b7100000000000000000000000000000000000000000000000000000000600052602160045260246000fd5b02179055507f62140afecdc609db4f53ad5f798f2ddb7c58cc3f54dc8ca5d6b35b0d0632f84d836040516108739190614f23565b60405180910390a1505050565b60026020528060005260406000206000915054906101000a900460ff1681565b6000803373ffffffffffffffffffffffffffffffffffffffff1673ffffffffffffffffffffffffffffffffffffffff16815260200190815260200160002060040160009054906101000a900460ff1661092e576040517f08c379a000000000000000000000000000000000000000000000000000000000815260040161092590614e41565b60405180910390fd5b6040518060400160405280600481526020017f4641524d00000000000000000000000000000000000000000000000000000000815250805190602001206000803373ffffffffffffffffffffffffffffffffffffffff1673ffffffffffffffffffffffffffffffffffffffff1681526020019081526020016000206003016040516109b99190614a97565b604051809103902014610a01576040517f08c379a00000000000000000000000000000000000000000000000000000000081526004016109f890614ea1565b60405180910390fd5b6000600454905060046000815480929190610a1b90615221565b91905055506040518060e0016040528082815260200187815260200186815260200185815260200184815260200183815260200160006003811115610a89577f4e487b7100000000000000000000000000000000000000000000000000000000600052602160045260246000fd5b81525060036000838152602001908152602001600020600082015181600001556020820151816001019080519060200190610ac592919061397a565b506040820151816002019080519060200190610ae292919061397a565b50606082015181600301556080820151816004019080519060200190610b0992919061397a565b5060a0820151816005019080519060200190610b2692919061397a565b5060c08201518160060160006101000a81548160ff02191690836003811115610b78577f4e487b7100000000000000000000000000000000000000000000000000000000600052602160045260246000fd5b02179055509050507fef4b055cf5e993c6d83cf74a12e25bf0adc276bc3a6e39eb6c2ba0960535445d81878787604051610bb59493929190614f3e565b60405180910390a1505050505050565b6000803373ffffffffffffffffffffffffffffffffffffffff1673ffffffffffffffffffffffffffffffffffffffff16815260200190815260200160002060040160009054906101000a900460ff16610c53576040517f08c379a0000000000000000000000000000000000000000000000000000000008152600401610c4a90614e41565b60405180910390fd5b6040518060400160405280600881526020017f52455441494c4552000000000000000000000000000000000000000000000000815250805190602001206000803373ffffffffffffffffffffffffffffffffffffffff1673ffffffffffffffffffffffffffffffffffffffff168152602001908152602001600020600301604051610cde9190614a97565b604051809103902014610d26576040517f08c379a0000000000000000000000000000000000000000000000000000000008152600401610d1d90614dc1565b60405180910390fd5b6000600583604051610d389190614aae565b90815260200160405180910390206000018054610d54906151ef565b90501415610d97576040517f08c379a0000000000000000000000000000000000000000000000000000000008152600401610d8e90614ee1565b60405180910390fd5b80600583604051610da89190614aae565b908152602001604051809103902060040160006101000a81548160ff02191690836004811115610e01577f4e487b7100000000000000000000000000000000000000000000000000000000600052602160045260246000fd5b02179055507f4c0a4d3facab28166bd1c55596a07bb0a00b61821553223addb723b931d11b8d8282604051610e37929190614b3f565b60405180910390a15050565b6000803373ffffffffffffffffffffffffffffffffffffffff1673ffffffffffffffffffffffffffffffffffffffff16815260200190815260200160002060040160009054906101000a900460ff16610ed1576040517f08c379a0000000000000000000000000000000000000000000000000000000008152600401610ec890614e41565b60405180910390fd5b6040518060400160405280601381526020017f5452414e53504f52545f415554484f5249545900000000000000000000000000815250805190602001206000803373ffffffffffffffffffffffffffffffffffffffff1673ffffffffffffffffffffffffffffffffffffffff168152602001908152602001600020600301604051610f5c9190614a97565b604051809103902014610fa4576040517f08c379a0000000000000000000000000000000000000000000000000000000008152600401610f9b90614da1565b60405180910390fd5b6000600582604051610fb69190614aae565b90815260200160405180910390206000018054610fd2906151ef565b90501415611015576040517f08c379a000000000000000000000000000000000000000000000000000000000815260040161100c90614ee1565b60405180910390fd5b60016005826040516110279190614aae565b908152602001604051809103902060020160016101000a81548160ff0219169083151502179055507f53328116520672148febbdab09d3767790087c1367615613d31da4b9c864eb828160405161107e9190614b1d565b60405180910390a150565b60036020528060005260406000206000915090508060000154908060010180546110b2906151ef565b80601f01602080910402602001604051908101604052809291908181526020018280546110de906151ef565b801561112b5780601f106111005761010080835404028352916020019161112b565b820191906000526020600020905b81548152906001019060200180831161110e57829003601f168201915b505050505090806002018054611140906151ef565b80601f016020809104026020016040519081016040528092919081815260200182805461116c906151ef565b80156111b95780601f1061118e576101008083540402835291602001916111b9565b820191906000526020600020905b81548152906001019060200180831161119c57829003601f168201915b5050505050908060030154908060040180546111d4906151ef565b80601f0160208091040260200160405190810160405280929190818152602001828054611200906151ef565b801561124d5780601f106112225761010080835404028352916020019161124d565b820191906000526020600020905b81548152906001019060200180831161123057829003601f168201915b505050505090806005018054611262906151ef565b80601f016020809104026020016040519081016040528092919081815260200182805461128e906151ef565b80156112db5780601f106112b0576101008083540402835291602001916112db565b820191906000526020600020905b8154815290600101906020018083116112be57829003601f168201915b5050505050908060060160009054906101000a900460ff16905087565b6001818154811061130857600080fd5b906000526020600020016000915054906101000a900473ffffffffffffffffffffffffffffffffffffffff1681565b60606000600180549050905060008167ffffffffffffffff811115611385577f4e487b7100000000000000000000000000000000000000000000000000000000600052604160045260246000fd5b6040519080825280602002602001820160405280156113be57816020015b6113ab613a00565b8152602001906001900390816113a35790505b50905060005b828110156117335760008060018381548110611409577f4e487b7100000000000000000000000000000000000000000000000000000000600052603260045260246000fd5b9060005260206000200160009054906101000a900473ffffffffffffffffffffffffffffffffffffffff1673ffffffffffffffffffffffffffffffffffffffff1673ffffffffffffffffffffffffffffffffffffffff1681526020019081526020016000206040518060a0016040529081600082018054611489906151ef565b80601f01602080910402602001604051908101604052809291908181526020018280546114b5906151ef565b80156115025780601f106114d757610100808354040283529160200191611502565b820191906000526020600020905b8154815290600101906020018083116114e557829003601f168201915b5050505050815260200160018201805461151b906151ef565b80601f0160208091040260200160405190810160405280929190818152602001828054611547906151ef565b80156115945780601f1061156957610100808354040283529160200191611594565b820191906000526020600020905b81548152906001019060200180831161157757829003601f168201915b505050505081526020016002820180546115ad906151ef565b80601f01602080910402602001604051908101604052809291908181526020018280546115d9906151ef565b80156116265780601f106115fb57610100808354040283529160200191611626565b820191906000526020600020905b81548152906001019060200180831161160957829003601f168201915b5050505050815260200160038201805461163f906151ef565b80601f016020809104026020016040519081016040528092919081815260200182805461166b906151ef565b80156116b85780601f1061168d576101008083540402835291602001916116b8565b820191906000526020600020905b81548152906001019060200180831161169b57829003601f168201915b505050505081526020016004820160009054906101000a900460ff161515151581525050828281518110611715577f4e487b7100000000000000000000000000000000000000000000000000000000600052603260045260246000fd5b6020026020010181905250808061172b90615221565b9150506113c4565b50809250505090565b6000803373ffffffffffffffffffffffffffffffffffffffff1673ffffffffffffffffffffffffffffffffffffffff16815260200190815260200160002060040160009054906101000a900460ff166117ca576040517f08c379a00000000000000000000000000000000000000000000000000000000081526004016117c190614e41565b60405180910390fd5b6040518060400160405280601581526020017f464f4f445f5341464554595f415554484f524954590000000000000000000000815250805190602001206000803373ffffffffffffffffffffffffffffffffffffffff1673ffffffffffffffffffffffffffffffffffffffff1681526020019081526020016000206003016040516118559190614a97565b60405180910390201461189d576040517f08c379a000000000000000000000000000000000000000000000000000000000815260040161189490614e81565b60405180910390fd5b60006005826040516118af9190614aae565b908152602001604051809103902060000180546118cb906151ef565b9050141561190e576040517f08c379a000000000000000000000000000000000000000000000000000000000815260040161190590614ee1565b60405180910390fd5b60016005826040516119209190614aae565b908152602001604051809103902060020160006101000a81548160ff021916908315150217905550600160058260405161195a9190614aae565b908152602001604051809103902060040160006101000a81548160ff021916908360048111156119b3577f4e487b7100000000000000000000000000000000000000000000000000000000600052602160045260246000fd5b02179055507f17de5669c9ffba8689a30adcbb78e5758413b6fef1781d60316ace11ef500ab5816040516119e79190614b1d565b60405180910390a150565b6000803373ffffffffffffffffffffffffffffffffffffffff1673ffffffffffffffffffffffffffffffffffffffff16815260200190815260200160002060040160009054906101000a900460ff16611a80576040517f08c379a0000000000000000000000000000000000000000000000000000000008152600401611a7790614e41565b60405180910390fd5b6040518060400160405280600481526020017f4641524d00000000000000000000000000000000000000000000000000000000815250805190602001206000803373ffffffffffffffffffffffffffffffffffffffff1673ffffffffffffffffffffffffffffffffffffffff168152602001908152602001600020600301604051611b0b9190614a97565b604051809103902014611b53576040517f08c379a0000000000000000000000000000000000000000000000000000000008152600401611b4a90614ea1565b60405180910390fd5b600060036000888152602001908152602001600020600001541415611bad576040517f08c379a0000000000000000000000000000000000000000000000000000000008152600401611ba490614d41565b60405180910390fd5b60006003811115611be7577f4e487b7100000000000000000000000000000000000000000000000000000000600052602160045260246000fd5b6003600088815260200190815260200160002060060160009054906101000a900460ff166003811115611c43577f4e487b7100000000000000000000000000000000000000000000000000000000600052602160045260246000fd5b14611c83576040517f08c379a0000000000000000000000000000000000000000000000000000000008152600401611c7a90614d21565b60405180910390fd5b84600360008881526020019081526020016000206001019080519060200190611cad92919061397a565b5083600360008881526020019081526020016000206002019080519060200190611cd892919061397a565b5082600360008881526020019081526020016000206003018190555081600360008881526020019081526020016000206004019080519060200190611d1e92919061397a565b5080600360008881526020019081526020016000206005019080519060200190611d4992919061397a565b50505050505050565b60045481565b611d60613a31565b6000600583604051611d729190614aae565b908152602001604051809103902060405180610160016040529081600082018054611d9c906151ef565b80601f0160208091040260200160405190810160405280929190818152602001828054611dc8906151ef565b8015611e155780601f10611dea57610100808354040283529160200191611e15565b820191906000526020600020905b815481529060010190602001808311611df857829003601f168201915b50505050508152602001600182015481526020016002820160009054906101000a900460ff161515151581526020016002820160019054906101000a900460ff16151515158152602001600382018054611e6e906151ef565b80601f0160208091040260200160405190810160405280929190818152602001828054611e9a906151ef565b8015611ee75780601f10611ebc57610100808354040283529160200191611ee7565b820191906000526020600020905b815481529060010190602001808311611eca57829003601f168201915b505050505081526020016004820160009054906101000a900460ff166004811115611f3b577f4e487b7100000000000000000000000000000000000000000000000000000000600052602160045260246000fd5b6004811115611f73577f4e487b7100000000000000000000000000000000000000000000000000000000600052602160045260246000fd5b8152602001600582018054611f87906151ef565b80601f0160208091040260200160405190810160405280929190818152602001828054611fb3906151ef565b80156120005780601f10611fd557610100808354040283529160200191612000565b820191906000526020600020905b815481529060010190602001808311611fe357829003601f168201915b50505050508152602001600682018054612019906151ef565b80601f0160208091040260200160405190810160405280929190818152602001828054612045906151ef565b80156120925780601f1061206757610100808354040283529160200191612092565b820191906000526020600020905b81548152906001019060200180831161207557829003601f168201915b505050505081526020016007820180546120ab906151ef565b80601f01602080910402602001604051908101604052809291908181526020018280546120d7906151ef565b80156121245780601f106120f957610100808354040283529160200191612124565b820191906000526020600020905b81548152906001019060200180831161210757829003601f168201915b5050505050815260200160088201805461213d906151ef565b80601f0160208091040260200160405190810160405280929190818152602001828054612169906151ef565b80156121b65780601f1061218b576101008083540402835291602001916121b6565b820191906000526020600020905b81548152906001019060200180831161219957829003601f168201915b505050505081526020016009820180546121cf906151ef565b80601f01602080910402602001604051908101604052809291908181526020018280546121fb906151ef565b80156122485780601f1061221d57610100808354040283529160200191612248565b820191906000526020600020905b81548152906001019060200180831161222b57829003601f168201915b50505050508152505090506000816000015151141561229c576040517f08c379a000000000000000000000000000000000000000000000000000000000815260040161229390614ee1565b60405180910390fd5b600060036000836020015181526020019081526020016000206040518060e0016040529081600082015481526020016001820180546122da906151ef565b80601f0160208091040260200160405190810160405280929190818152602001828054612306906151ef565b80156123535780601f1061232857610100808354040283529160200191612353565b820191906000526020600020905b81548152906001019060200180831161233657829003601f168201915b5050505050815260200160028201805461236c906151ef565b80601f0160208091040260200160405190810160405280929190818152602001828054612398906151ef565b80156123e55780601f106123ba576101008083540402835291602001916123e5565b820191906000526020600020905b8154815290600101906020018083116123c857829003601f168201915b5050505050815260200160038201548152602001600482018054612408906151ef565b80601f0160208091040260200160405190810160405280929190818152602001828054612434906151ef565b80156124815780601f1061245657610100808354040283529160200191612481565b820191906000526020600020905b81548152906001019060200180831161246457829003601f168201915b5050505050815260200160058201805461249a906151ef565b80601f01602080910402602001604051908101604052809291908181526020018280546124c6906151ef565b80156125135780601f106124e857610100808354040283529160200191612513565b820191906000526020600020905b8154815290600101906020018083116124f657829003601f168201915b505050505081526020016006820160009054906101000a900460ff166003811115612567577f4e487b7100000000000000000000000000000000000000000000000000000000600052602160045260246000fd5b600381111561259f577f4e487b7100000000000000000000000000000000000000000000000000000000600052602160045260246000fd5b81525050905060006040518061022001604052808460000151815260200184602001518152602001846040015115158152602001846060015115158152602001846080015181526020018460a001516004811115612626577f4e487b7100000000000000000000000000000000000000000000000000000000600052602160045260246000fd5b60ff1681526020018460c0015181526020018460e001518152602001846101000151815260200184610120015181526020018461014001518152602001836020015181526020018360400151815260200183606001518152602001836080015181526020018360a0015181526020018360c0015160038111156126d2577f4e487b7100000000000000000000000000000000000000000000000000000000600052602160045260246000fd5b60ff168152509050809350505050919050565b6000803373ffffffffffffffffffffffffffffffffffffffff1673ffffffffffffffffffffffffffffffffffffffff16815260200190815260200160002060040160009054906101000a900460ff16612773576040517f08c379a000000000000000000000000000000000000000000000000000000000815260040161276a90614e41565b60405180910390fd5b6040518060400160405280600b81526020017f4449535452494255544f52000000000000000000000000000000000000000000815250805190602001206000803373ffffffffffffffffffffffffffffffffffffffff1673ffffffffffffffffffffffffffffffffffffffff1681526020019081526020016000206003016040516127fe9190614a97565b604051809103902014612846576040517f08c379a000000000000000000000000000000000000000000000000000000000815260040161283d90614e21565b60405180910390fd5b60006005846040516128589190614aae565b90815260200160405180910390206000018054612874906151ef565b905014156128b7576040517f08c379a00000000000000000000000000000000000000000000000000000000081526004016128ae90614ee1565b60405180910390fd5b816005846040516128c89190614aae565b908152602001604051809103902060030190805190602001906128ec92919061397a565b50806005846040516128fe9190614aae565b9081526020016040518091039020600501908051906020019061292292919061397a565b5060026005846040516129359190614aae565b908152602001604051809103902060040160006101000a81548160ff0219169083600481111561298e577f4e487b7100000000000000000000000000000000000000000000000000000000600052602160045260246000fd5b02179055507fdc8cabdb0e711a565797ff3869725802ae343d5694a86de295b52d016e5cd87583826040516129c4929190614b6f565b60405180910390a1505050565b6000803373ffffffffffffffffffffffffffffffffffffffff1673ffffffffffffffffffffffffffffffffffffffff16815260200190815260200160002060040160009054906101000a900460ff16612a5f576040517f08c379a0000000000000000000000000000000000000000000000000000000008152600401612a5690614e41565b60405180910390fd5b6040518060400160405280600c81526020017f4d414e5546414354555245520000000000000000000000000000000000000000815250805190602001206000803373ffffffffffffffffffffffffffffffffffffffff1673ffffffffffffffffffffffffffffffffffffffff168152602001908152602001600020600301604051612aea9190614a97565b604051809103902014612b32576040517f08c379a0000000000000000000000000000000000000000000000000000000008152600401612b2990614e61565b60405180910390fd5b6000600585604051612b449190614aae565b90815260200160405180910390206000018054612b60906151ef565b90501415612ba3576040517f08c379a0000000000000000000000000000000000000000000000000000000008152600401612b9a90614ee1565b60405180910390fd5b60006004811115612bdd577f4e487b7100000000000000000000000000000000000000000000000000000000600052602160045260246000fd5b600585604051612bed9190614aae565b908152602001604051809103902060040160009054906101000a900460ff166004811115612c44577f4e487b7100000000000000000000000000000000000000000000000000000000600052602160045260246000fd5b14612c84576040517f08c379a0000000000000000000000000000000000000000000000000000000008152600401612c7b90614d21565b60405180910390fd5b82600585604051612c959190614aae565b90815260200160405180910390206007019080519060200190612cb992919061397a565b5081600585604051612ccb9190614aae565b90815260200160405180910390206008019080519060200190612cef92919061397a565b5080600585604051612d019190614aae565b90815260200160405180910390206009019080519060200190612d2592919061397a565b5050505050565b600581805160208101820180518482526020830160208501208183528095505050505050600091509050806000018054612d65906151ef565b80601f0160208091040260200160405190810160405280929190818152602001828054612d91906151ef565b8015612dde5780601f10612db357610100808354040283529160200191612dde565b820191906000526020600020905b815481529060010190602001808311612dc157829003601f168201915b5050505050908060010154908060020160009054906101000a900460ff16908060020160019054906101000a900460ff1690806003018054612e1f906151ef565b80601f0160208091040260200160405190810160405280929190818152602001828054612e4b906151ef565b8015612e985780601f10612e6d57610100808354040283529160200191612e98565b820191906000526020600020905b815481529060010190602001808311612e7b57829003601f168201915b5050505050908060040160009054906101000a900460ff1690806005018054612ec0906151ef565b80601f0160208091040260200160405190810160405280929190818152602001828054612eec906151ef565b8015612f395780601f10612f0e57610100808354040283529160200191612f39565b820191906000526020600020905b815481529060010190602001808311612f1c57829003601f168201915b505050505090806006018054612f4e906151ef565b80601f0160208091040260200160405190810160405280929190818152602001828054612f7a906151ef565b8015612fc75780601f10612f9c57610100808354040283529160200191612fc7565b820191906000526020600020905b815481529060010190602001808311612faa57829003601f168201915b505050505090806007018054612fdc906151ef565b80601f0160208091040260200160405190810160405280929190818152602001828054613008906151ef565b80156130555780601f1061302a57610100808354040283529160200191613055565b820191906000526020600020905b81548152906001019060200180831161303857829003601f168201915b50505050509080600801805461306a906151ef565b80601f0160208091040260200160405190810160405280929190818152602001828054613096906151ef565b80156130e35780601f106130b8576101008083540402835291602001916130e3565b820191906000526020600020905b8154815290600101906020018083116130c657829003601f168201915b5050505050908060090180546130f8906151ef565b80601f0160208091040260200160405190810160405280929190818152602001828054613124906151ef565b80156131715780601f1061314657610100808354040283529160200191613171565b820191906000526020600020905b81548152906001019060200180831161315457829003601f168201915b505050505090508b565b600260008773ffffffffffffffffffffffffffffffffffffffff1673ffffffffffffffffffffffffffffffffffffffff16815260200190815260200160002060009054906101000a900460ff16613288576001869080600181540180825580915050600190039060005260206000200160009091909190916101000a81548173ffffffffffffffffffffffffffffffffffffffff021916908373ffffffffffffffffffffffffffffffffffffffff1602179055506001600260008873ffffffffffffffffffffffffffffffffffffffff1673ffffffffffffffffffffffffffffffffffffffff16815260200190815260200160002060006101000a81548160ff0219169083151502179055505b6040518060a001604052808681526020018581526020018481526020018381526020018215158152506000808873ffffffffffffffffffffffffffffffffffffffff1673ffffffffffffffffffffffffffffffffffffffff168152602001908152602001600020600082015181600001908051906020019061330b92919061397a565b50602082015181600101908051906020019061332892919061397a565b50604082015181600201908051906020019061334592919061397a565b50606082015181600301908051906020019061336292919061397a565b5060808201518160040160006101000a81548160ff021916908315150217905550905050505050505050565b6000803373ffffffffffffffffffffffffffffffffffffffff1673ffffffffffffffffffffffffffffffffffffffff16815260200190815260200160002060040160009054906101000a900460ff1661341c576040517f08c379a000000000000000000000000000000000000000000000000000000000815260040161341390614e41565b60405180910390fd5b6000803373ffffffffffffffffffffffffffffffffffffffff1673ffffffffffffffffffffffffffffffffffffffff16815260200190815260200160002060040160009054906101000a900460ff166134aa576040517f08c379a00000000000000000000000000000000000000000000000000000000081526004016134a190614ec1565b60405180910390fd5b6040518060400160405280600c81526020017f4d414e5546414354555245520000000000000000000000000000000000000000815250805190602001206000803373ffffffffffffffffffffffffffffffffffffffff1673ffffffffffffffffffffffffffffffffffffffff1681526020019081526020016000206003016040516135359190614a97565b60405180910390201461357d576040517f08c379a000000000000000000000000000000000000000000000000000000000815260040161357490614d61565b60405180910390fd5b6000600360008981526020019081526020016000206000015414156135d7576040517f08c379a00000000000000000000000000000000000000000000000000000000081526004016135ce90614d41565b60405180910390fd5b60006003811115613611577f4e487b7100000000000000000000000000000000000000000000000000000000600052602160045260246000fd5b6003600089815260200190815260200160002060060160009054906101000a900460ff16600381111561366d577f4e487b7100000000000000000000000000000000000000000000000000000000600052602160045260246000fd5b14156136ae576040517f08c379a00000000000000000000000000000000000000000000000000000000081526004016136a590614d81565b60405180910390fd5b60006005876040516136c09190614aae565b908152602001604051809103902060000180546136dc906151ef565b90501461371e576040517f08c379a000000000000000000000000000000000000000000000000000000000815260040161371590614de1565b60405180910390fd5b60405180610160016040528087815260200188815260200160001515815260200160001515815260200182815260200160006004811115613788577f4e487b7100000000000000000000000000000000000000000000000000000000600052602160045260246000fd5b8152602001838152602001838152602001868152602001858152602001848152506005876040516137b99190614aae565b908152602001604051809103902060008201518160000190805190602001906137e392919061397a565b506020820151816001015560408201518160020160006101000a81548160ff02191690831515021790555060608201518160020160016101000a81548160ff021916908315150217905550608082015181600301908051906020019061384a92919061397a565b5060a08201518160040160006101000a81548160ff0219169083600481111561389c577f4e487b7100000000000000000000000000000000000000000000000000000000600052602160045260246000fd5b021790555060c08201518160050190805190602001906138bd92919061397a565b5060e08201518160060190805190602001906138da92919061397a565b506101008201518160070190805190602001906138f892919061397a565b5061012082015181600801908051906020019061391692919061397a565b5061014082015181600901908051906020019061393492919061397a565b509050507fe7e8fac9810c1662e3dc7e398a21d467261db4d92db343803b991a20555d0ab48688604051613969929190614c15565b60405180910390a150505050505050565b828054613986906151ef565b90600052602060002090601f0160209004810192826139a857600085556139ef565b82601f106139c157805160ff19168380011785556139ef565b828001600101855582156139ef579182015b828111156139ee5782518255916020019190600101906139d3565b5b5090506139fc9190613abf565b5090565b6040518060a00160405280606081526020016060815260200160608152602001606081526020016000151581525090565b604051806102200160405280606081526020016000815260200160001515815260200160001515815260200160608152602001600060ff16815260200160608152602001606081526020016060815260200160608152602001606081526020016060815260200160608152602001600081526020016060815260200160608152602001600060ff1681525090565b5b80821115613ad8576000816000905550600101613ac0565b5090565b6000613aef613aea8461504d565b61501c565b905082815260208101848484011115613b0757600080fd5b613b128482856151ad565b509392505050565b600081359050613b298161535f565b92915050565b600081359050613b3e81615376565b92915050565b600081359050613b538161538d565b92915050565b600082601f830112613b6a57600080fd5b8135613b7a848260208601613adc565b91505092915050565b600081359050613b928161539d565b92915050565b600060208284031215613baa57600080fd5b6000613bb884828501613b1a565b91505092915050565b60008060008060008060c08789031215613bda57600080fd5b6000613be889828a01613b1a565b965050602087013567ffffffffffffffff811115613c0557600080fd5b613c1189828a01613b59565b955050604087013567ffffffffffffffff811115613c2e57600080fd5b613c3a89828a01613b59565b945050606087013567ffffffffffffffff811115613c5757600080fd5b613c6389828a01613b59565b935050608087013567ffffffffffffffff811115613c8057600080fd5b613c8c89828a01613b59565b92505060a0613c9d89828a01613b2f565b9150509295509295509295565b600060208284031215613cbc57600080fd5b600082013567ffffffffffffffff811115613cd657600080fd5b613ce284828501613b59565b91505092915050565b60008060408385031215613cfe57600080fd5b600083013567ffffffffffffffff811115613d1857600080fd5b613d2485828601613b59565b9250506020613d3585828601613b44565b9150509250929050565b600080600060608486031215613d5457600080fd5b600084013567ffffffffffffffff811115613d6e57600080fd5b613d7a86828701613b59565b935050602084013567ffffffffffffffff811115613d9757600080fd5b613da386828701613b59565b925050604084013567ffffffffffffffff811115613dc057600080fd5b613dcc86828701613b59565b9150509250925092565b60008060008060808587031215613dec57600080fd5b600085013567ffffffffffffffff811115613e0657600080fd5b613e1287828801613b59565b945050602085013567ffffffffffffffff811115613e2f57600080fd5b613e3b87828801613b59565b935050604085013567ffffffffffffffff811115613e5857600080fd5b613e6487828801613b59565b925050606085013567ffffffffffffffff811115613e8157600080fd5b613e8d87828801613b59565b91505092959194509250565b600080600080600060a08688031215613eb157600080fd5b600086013567ffffffffffffffff811115613ecb57600080fd5b613ed788828901613b59565b955050602086013567ffffffffffffffff811115613ef457600080fd5b613f0088828901613b59565b9450506040613f1188828901613b83565b935050606086013567ffffffffffffffff811115613f2e57600080fd5b613f3a88828901613b59565b925050608086013567ffffffffffffffff811115613f5757600080fd5b613f6388828901613b59565b9150509295509295909350565b600060208284031215613f8257600080fd5b6000613f9084828501613b83565b91505092915050565b60008060408385031215613fac57600080fd5b6000613fba85828601613b83565b925050602083013567ffffffffffffffff811115613fd757600080fd5b613fe385828601613b59565b9150509250929050565b600080600080600080600060e0888a03121561400857600080fd5b60006140168a828b01613b83565b975050602088013567ffffffffffffffff81111561403357600080fd5b61403f8a828b01613b59565b965050604088013567ffffffffffffffff81111561405c57600080fd5b6140688a828b01613b59565b955050606088013567ffffffffffffffff81111561408557600080fd5b6140918a828b01613b59565b945050608088013567ffffffffffffffff8111156140ae57600080fd5b6140ba8a828b01613b59565b93505060a088013567ffffffffffffffff8111156140d757600080fd5b6140e38a828b01613b59565b92505060c088013567ffffffffffffffff81111561410057600080fd5b61410c8a828b01613b59565b91505092959891949750929550565b60008060008060008060c0878903121561413457600080fd5b600061414289828a01613b83565b965050602087013567ffffffffffffffff81111561415f57600080fd5b61416b89828a01613b59565b955050604087013567ffffffffffffffff81111561418857600080fd5b61419489828a01613b59565b94505060606141a589828a01613b83565b935050608087013567ffffffffffffffff8111156141c257600080fd5b6141ce89828a01613b59565b92505060a087013567ffffffffffffffff8111156141eb57600080fd5b6141f789828a01613b59565b9150509295509295509295565b600061421083836149df565b905092915050565b6142218161510e565b82525050565b6000614232826150a2565b61423c81856150c5565b93508360208202850161424e8561507d565b8060005b8581101561428a578484038952815161426b8582614204565b9450614276836150b8565b925060208a01995050600181019050614252565b50829750879550505050505092915050565b6142a581615120565b82525050565b6142b481615120565b82525050565b600081546142c7816151ef565b6142d181866150d6565b945060018216600081146142ec57600181146142fd57614330565b60ff19831686528186019350614330565b6143068561508d565b60005b8381101561432857815481890152600182019150602081019050614309565b838801955050505b50505092915050565b61434281615189565b82525050565b6143518161519b565b82525050565b6000614362826150ad565b61436c81856150e1565b935061437c8185602086016151bc565b61438581615326565b840191505092915050565b600061439b826150ad565b6143a581856150f2565b93506143b58185602086016151bc565b6143be81615326565b840191505092915050565b60006143d4826150ad565b6143de8185615103565b93506143ee8185602086016151bc565b80840191505092915050565b60006144076025836150f2565b91507f4368692064756f6320737561206b6869206f207472616e67207468616920437260008301527f65617465640000000000000000000000000000000000000000000000000000006020830152604082019050919050565b600061446d6013836150f2565b91507f4261746368206b686f6e6720746f6e20746169000000000000000000000000006000830152602082019050919050565b60006144ad601f836150f2565b91507f44696120636869206b686f6e672070686169204d616e756661637475726572006000830152602082019050919050565b60006144ed6027836150f2565b91507f426174636820636875612064756f632070686520647579657420626f69204e7560008301527f74726974696f6e000000000000000000000000000000000000000000000000006020830152604082019050919050565b60006145536020836150f2565b91507f4368692063686f2070686570205452414e53504f52545f415554484f524954596000830152602082019050919050565b60006145936015836150f2565b91507f4368692063686f20706865702052455441494c455200000000000000000000006000830152602082019050919050565b60006145d36012836150f2565b91507f4d696c6b426f7820646120746f6e2074616900000000000000000000000000006000830152602082019050919050565b60006146136020836150f2565b91507f4368692063686f2070686570204e5554524954494f4e5f415554484f524954596000830152602082019050919050565b60006146536018836150f2565b91507f4368692063686f2070686570204449535452494255544f5200000000000000006000830152602082019050919050565b60006146936018836150f2565b91507f5061727469636970616e74206b686f6e672061637469766500000000000000006000830152602082019050919050565b60006146d36019836150f2565b91507f4368692063686f2070686570204d414e554641435455524552000000000000006000830152602082019050919050565b60006147136022836150f2565b91507f4368692063686f207068657020464f4f445f5341464554595f415554484f524960008301527f54590000000000000000000000000000000000000000000000000000000000006020830152604082019050919050565b60006147796011836150f2565b91507f4368692063686f2070686570204641524d0000000000000000000000000000006000830152602082019050919050565b60006147b96019836150f2565b91507f4d616e756661637475726572206b686f6e6720616374697665000000000000006000830152602082019050919050565b60006147f96015836150f2565b91507f4d696c6b426f78206b686f6e6720746f6e2074616900000000000000000000006000830152602082019050919050565b600061022083016000830151848203600086015261484a8282614357565b915050602083015161485f6020860182614a6a565b506040830151614872604086018261429c565b506060830151614885606086018261429c565b506080830151848203608086015261489d8282614357565b91505060a08301516148b260a0860182614a88565b5060c083015184820360c08601526148ca8282614357565b91505060e083015184820360e08601526148e48282614357565b9150506101008301518482036101008601526149008282614357565b91505061012083015184820361012086015261491c8282614357565b9150506101408301518482036101408601526149388282614357565b9150506101608301518482036101608601526149548282614357565b9150506101808301518482036101808601526149708282614357565b9150506101a08301516149876101a0860182614a6a565b506101c08301518482036101c08601526149a18282614357565b9150506101e08301518482036101e08601526149bd8282614357565b9150506102008301516149d4610200860182614a88565b508091505092915050565b600060a08301600083015184820360008601526149fc8282614357565b91505060208301518482036020860152614a168282614357565b91505060408301518482036040860152614a308282614357565b91505060608301518482036060860152614a4a8282614357565b9150506080830151614a5f608086018261429c565b508091505092915050565b614a7381615172565b82525050565b614a8281615172565b82525050565b614a918161517c565b82525050565b6000614aa382846142ba565b915081905092915050565b6000614aba82846143c9565b915081905092915050565b6000602082019050614ada6000830184614218565b92915050565b60006020820190508181036000830152614afa8184614227565b905092915050565b6000602082019050614b1760008301846142ab565b92915050565b60006020820190508181036000830152614b378184614390565b905092915050565b60006040820190508181036000830152614b598185614390565b9050614b686020830184614348565b9392505050565b60006040820190508181036000830152614b898185614390565b90508181036020830152614b9d8184614390565b90509392505050565b600060a0820190508181036000830152614bc08188614390565b90508181036020830152614bd48187614390565b90508181036040830152614be88186614390565b90508181036060830152614bfc8185614390565b9050614c0b60808301846142ab565b9695505050505050565b60006040820190508181036000830152614c2f8185614390565b9050614c3e6020830184614a79565b9392505050565b6000610160820190508181036000830152614c60818e614390565b9050614c6f602083018d614a79565b614c7c604083018c6142ab565b614c89606083018b6142ab565b8181036080830152614c9b818a614390565b9050614caa60a0830189614348565b81810360c0830152614cbc8188614390565b905081810360e0830152614cd08187614390565b9050818103610100830152614ce58186614390565b9050818103610120830152614cfa8185614390565b9050818103610140830152614d0f8184614390565b90509c9b505050505050505050505050565b60006020820190508181036000830152614d3a816143fa565b9050919050565b60006020820190508181036000830152614d5a81614460565b9050919050565b60006020820190508181036000830152614d7a816144a0565b9050919050565b60006020820190508181036000830152614d9a816144e0565b9050919050565b60006020820190508181036000830152614dba81614546565b9050919050565b60006020820190508181036000830152614dda81614586565b9050919050565b60006020820190508181036000830152614dfa816145c6565b9050919050565b60006020820190508181036000830152614e1a81614606565b9050919050565b60006020820190508181036000830152614e3a81614646565b9050919050565b60006020820190508181036000830152614e5a81614686565b9050919050565b60006020820190508181036000830152614e7a816146c6565b9050919050565b60006020820190508181036000830152614e9a81614706565b9050919050565b60006020820190508181036000830152614eba8161476c565b9050919050565b60006020820190508181036000830152614eda816147ac565b9050919050565b60006020820190508181036000830152614efa816147ec565b9050919050565b60006020820190508181036000830152614f1b818461482c565b905092915050565b6000602082019050614f386000830184614a79565b92915050565b6000608082019050614f536000830187614a79565b8181036020830152614f658186614390565b90508181036040830152614f798185614390565b9050614f886060830184614a79565b95945050505050565b600060e082019050614fa6600083018a614a79565b8181036020830152614fb88189614390565b90508181036040830152614fcc8188614390565b9050614fdb6060830187614a79565b8181036080830152614fed8186614390565b905081810360a08301526150018185614390565b905061501060c0830184614339565b98975050505050505050565b6000604051905081810181811067ffffffffffffffff82111715615043576150426152f7565b5b8060405250919050565b600067ffffffffffffffff821115615068576150676152f7565b5b601f19601f8301169050602081019050919050565b6000819050602082019050919050565b60008190508160005260206000209050919050565b600081519050919050565b600081519050919050565b6000602082019050919050565b600082825260208201905092915050565b600081905092915050565b600082825260208201905092915050565b600082825260208201905092915050565b600081905092915050565b600061511982615152565b9050919050565b60008115159050919050565b600081905061513a82615337565b919050565b600081905061514d8261534b565b919050565b600073ffffffffffffffffffffffffffffffffffffffff82169050919050565b6000819050919050565b600060ff82169050919050565b60006151948261512c565b9050919050565b60006151a68261513f565b9050919050565b82818337600083830152505050565b60005b838110156151da5780820151818401526020810190506151bf565b838111156151e9576000848401525b50505050565b6000600282049050600182168061520757607f821691505b6020821081141561521b5761521a6152c8565b5b50919050565b600061522c82615172565b91507fffffffffffffffffffffffffffffffffffffffffffffffffffffffffffffffff82141561525f5761525e61526a565b5b600182019050919050565b7f4e487b7100000000000000000000000000000000000000000000000000000000600052601160045260246000fd5b7f4e487b7100000000000000000000000000000000000000000000000000000000600052602160045260246000fd5b7f4e487b7100000000000000000000000000000000000000000000000000000000600052602260045260246000fd5b7f4e487b7100000000000000000000000000000000000000000000000000000000600052604160045260246000fd5b6000601f19601f8301169050919050565b6004811061534857615347615299565b5b50565b6005811061535c5761535b615299565b5b50565b6153688161510e565b811461537357600080fd5b50565b61537f81615120565b811461538a57600080fd5b50565b6005811061539a57600080fd5b50565b6153a681615172565b81146153b157600080fd5b5056fea2646970667358221220cbcd491a93b3a74087c1640255d097ce77f02e5723868f3d8509db3d84225e1e64736f6c63430008000033",
  "immutableReferences": {},
  "source": "// SPDX-License-Identifier: FIT\r\npragma solidity ^0.8.0;\r\n\r\ncontract MilkSupplyChain {\r\n    // Enum nh ngha trng thi ca l sa\r\n    // - Created: L sa va c to bi FARM.\r\n    // - ApprovedByNutrition: L sa  c ph duyt bi NUTRITION_AUTHORITY.\r\n    // - ManufacturerProcessing: L sa ang c ch bin bi MANUFACTURER.\r\n    // - Processed: L sa  hon thnh ch bin.\r\n    enum BatchStatus {\r\n        Created,\r\n        ApprovedByNutrition,\r\n        ManufacturerProcessing,\r\n        Processed\r\n    }\r\n\r\n    // Enum nh ngha trng thi ca hp sa\r\n    // - Created: Hp sa va c to bi MANUFACTURER.\r\n    // - Approved: Hp sa  c ph duyt bi FOOD_SAFETY_AUTHORITY.\r\n    // - InTransit: Hp sa ang c vn chuyn bi DISTRIBUTOR.\r\n    // - ArrivedAtRetailer: Hp sa  n ca RETAILER.\r\n    // - Sold: Hp sa  c bn cho ngi tiu dng.\r\n    enum MilkBoxStatus {\r\n        Created,\r\n        Approved,\r\n        InTransit,\r\n        ArrivedAtRetailer,\r\n        Sold\r\n    }\r\n\r\n    // Struct Participant lu thng tin ca cc bn tham gia chui cung ng.\r\n    // Lu : a ch ca participant c dng lm key trong mapping.\r\n    struct Participant {\r\n        string name; // Tn ca participant.\r\n        string location; // V tr (a ch) ca participant.\r\n        string phone; // S in thoi lin h.\r\n        string role; // Vai tr ca participant (v d: \"FARM\", \"NUTRITION_AUTHORITY\", \"MANUFACTURER\", v.v.).\r\n        bool isActive; // Trng thi hot ng.\r\n    }\r\n\r\n    // Mapping lu tr Participant, key l a ch ca participant.\r\n    mapping(address => Participant) public participants;\r\n    // Duyt ton b mapping participants\r\n    address[] public participantAddresses;\r\n    mapping(address => bool) public participantRegistered;\r\n\r\n    // Hm ng k hoc cp nht thng tin ca mt Participant\r\n    function setParticipant(\r\n        address _participant,\r\n        string memory _name,\r\n        string memory _location,\r\n        string memory _phone,\r\n        string memory _role,\r\n        bool _isActive\r\n    ) public {\r\n        if (!participantRegistered[_participant]) {\r\n            participantAddresses.push(_participant);\r\n            participantRegistered[_participant] = true;\r\n        }\r\n        participants[_participant] = Participant(\r\n            _name,\r\n            _location,\r\n            _phone,\r\n            _role,\r\n            _isActive\r\n        );\r\n    }\r\n\r\n    // Hm ly ton b d liu Participant, tr v mng cc struct Participant.\r\n    function getParticipants() public view returns (Participant[] memory) {\r\n        uint256 len = participantAddresses.length;\r\n        Participant[] memory result = new Participant[](len);\r\n        for (uint256 i = 0; i < len; i++) {\r\n            result[i] = participants[participantAddresses[i]];\r\n        }\r\n        return result;\r\n    }\r\n\r\n    // Struct MilkBatch lu tr thng tin ca l sa.\r\n    // - batchId: M nh danh ca l sa (t ng tng).\r\n    // - batchName: Tn ca l sa.\r\n    // - milkingDate: Ngy vt sa.\r\n    // - volume: Th tch sa.\r\n    // - farmOwner: a ch ca trang tri s hu (FARM).\r\n    // - approvedBy: a ch ca c quan duyt (NUTRITION_AUTHORITY).\r\n    // - status: Trng thi ca l sa theo enum BatchStatus.\r\n    struct MilkBatch {\r\n        uint256 batchId;\r\n        string batchName;\r\n        string milkingDate;\r\n        uint256 volume;\r\n        string farmOwner;\r\n        string approvedBy;\r\n        BatchStatus status;\r\n    }\r\n    mapping(uint256 => MilkBatch) public milkBatches;\r\n\r\n    // Bin t ng tng batchId, bt u t 1.\r\n    uint256 public nextBatchId = 1;\r\n\r\n    // Struct MilkBox lu tr thng tin ca hp sa.\r\n    // - serialNumber: S serial nh danh hp sa.\r\n    // - batchId: Lin kt n l sa (MilkBatch) m hp sa thuc v.\r\n    // - processingApproved: Trng thi ph duyt ch bin (FOOD_SAFETY_AUTHORITY).\r\n    // - transportApproved: Trng thi ph duyt vn chuyn (TRANSPORT_AUTHORITY).\r\n    // - distributorAddress: a ch ca nh phn phi (DISTRIBUTOR) nhn hp sa.\r\n    // - status: Trng thi ca hp sa theo enum MilkBoxStatus.\r\n    // - owner: Ch s hu hin ti ca hp sa (c th thay i theo qu trnh chuyn giao).\r\n    // - manufacturer: a ch ca nh my sn xut (MANUFACTURER) to ra hp sa.\r\n    // - boxName: Tn ca hp sa.\r\n    // - manufacturingDate: Ngy sn xut ca hp sa.\r\n    // - expirationDate: Hn s dng ca hp sa.\r\n    struct MilkBox {\r\n        string serialNumber;\r\n        uint256 batchId;\r\n        bool processingApproved;\r\n        bool transportApproved;\r\n        string distributorAddress;\r\n        MilkBoxStatus status;\r\n        string owner;\r\n        string manufacturer;\r\n        string boxName;\r\n        string manufacturingDate;\r\n        string expirationDate;\r\n    }\r\n    mapping(string => MilkBox) public milkBoxes;\r\n\r\n    // Cc s kin theo di cc hnh ng trn chui cung ng.\r\n    event MilkBatchCreated(\r\n        uint256 batchId,\r\n        string batchName,\r\n        string milkingDate,\r\n        uint256 volume\r\n    );\r\n    event MilkBatchApproved(uint256 batchId);\r\n    event MilkBoxCreated(string serialNumber, uint256 batchId);\r\n    event ProcessingBoxApproved(string serialNumber);\r\n    event DistributorUpdated(string serialNumber, string distributor);\r\n    event TransportBoxApproved(string serialNumber);\r\n    event BoxStatusUpdated(string serialNumber, MilkBoxStatus status);\r\n\r\n    // Hm cp nht thng tin sn phm sa\r\n    function updateMilkProduct(\r\n        string memory _serialNumber,\r\n        string memory _boxName,\r\n        string memory _manufacturingDate,\r\n        string memory _expirationDate\r\n    ) public {\r\n        require(participants[msg.sender].isActive, \"Participant khong active\");\r\n        require(\r\n            keccak256(bytes(participants[msg.sender].role)) ==\r\n                keccak256(bytes(\"MANUFACTURER\")),\r\n            \"Chi cho phep MANUFACTURER\"\r\n        );\r\n        require(\r\n            bytes(milkBoxes[_serialNumber].serialNumber).length != 0,\r\n            \"MilkBox khong ton tai\"\r\n        );\r\n\r\n        // Ch cho php sa khi hp sa  trng thi Created\r\n        require(\r\n            milkBoxes[_serialNumber].status == MilkBoxStatus.Created,\r\n            \"Chi duoc sua khi o trang thai Created\"\r\n        );\r\n\r\n        // Cp nht thng tin\r\n        milkBoxes[_serialNumber].boxName = _boxName;\r\n        milkBoxes[_serialNumber].manufacturingDate = _manufacturingDate;\r\n        milkBoxes[_serialNumber].expirationDate = _expirationDate;\r\n    }\r\n\r\n    // Hm cp nht thng tin l sa\r\n    function updateMilkBatch(\r\n        uint256 _batchId,\r\n        string memory _batchName,\r\n        string memory _milkingDate,\r\n        uint256 _volume,\r\n        string memory _farmOwner,\r\n        string memory _approvedBy\r\n    ) public {\r\n        require(participants[msg.sender].isActive, \"Participant khong active\");\r\n        require(\r\n            keccak256(bytes(participants[msg.sender].role)) ==\r\n                keccak256(bytes(\"FARM\")),\r\n            \"Chi cho phep FARM\"\r\n        );\r\n        require(milkBatches[_batchId].batchId != 0, \"Batch khong ton tai\");\r\n\r\n        // Ch cho php sa khi l sa  trng thi Created\r\n        require(\r\n            milkBatches[_batchId].status == BatchStatus.Created,\r\n            \"Chi duoc sua khi o trang thai Created\"\r\n        );\r\n\r\n        // Cp nht thng tin\r\n        milkBatches[_batchId].batchName = _batchName;\r\n        milkBatches[_batchId].milkingDate = _milkingDate;\r\n        milkBatches[_batchId].volume = _volume;\r\n        milkBatches[_batchId].farmOwner = _farmOwner;\r\n        milkBatches[_batchId].approvedBy = _approvedBy;\r\n    }\r\n\r\n    // 1. FARM to MilkBatch (batchId t ng tng).\r\n    function createMilkBatch(\r\n        string memory _batchName,\r\n        string memory _milkingDate,\r\n        uint256 _volume,\r\n        string memory _farmOwner,\r\n        string memory _approvedBy\r\n    ) public {\r\n        // Ch cho php participant c role \"FARM\" thc hin.\r\n        require(participants[msg.sender].isActive, \"Participant khong active\");\r\n        require(\r\n            keccak256(bytes(participants[msg.sender].role)) ==\r\n                keccak256(bytes(\"FARM\")),\r\n            \"Chi cho phep FARM\"\r\n        );\r\n\r\n        uint256 currentBatchId = nextBatchId;\r\n        nextBatchId++;\r\n\r\n        milkBatches[currentBatchId] = MilkBatch({\r\n            batchId: currentBatchId,\r\n            batchName: _batchName,\r\n            milkingDate: _milkingDate,\r\n            volume: _volume,\r\n            farmOwner: _farmOwner,\r\n            approvedBy: _approvedBy,\r\n            status: BatchStatus.Created\r\n        });\r\n        emit MilkBatchCreated(\r\n            currentBatchId,\r\n            _batchName,\r\n            _milkingDate,\r\n            _volume\r\n        );\r\n    }\r\n\r\n    // 2. NUTRITION_AUTHORITY ph duyt MilkBatch.\r\n    function approveMilking(\r\n        uint256 _batchId,\r\n        string memory _approvedBy\r\n    ) public {\r\n        require(participants[msg.sender].isActive, \"Participant khong active\");\r\n        require(\r\n            keccak256(bytes(participants[msg.sender].role)) ==\r\n                keccak256(bytes(\"NUTRITION_AUTHORITY\")),\r\n            \"Chi cho phep NUTRITION_AUTHORITY\"\r\n        );\r\n        require(milkBatches[_batchId].batchId != 0, \"Batch khong ton tai\");\r\n\r\n        MilkBatch storage batch = milkBatches[_batchId];\r\n        batch.approvedBy = _approvedBy;\r\n        batch.status = BatchStatus.ApprovedByNutrition;\r\n        emit MilkBatchApproved(_batchId);\r\n    }\r\n\r\n    // 3. MANUFACTURER to MilkBox t MilkBatch  c ph duyt.\r\n    // Cho php truyn vo _manufacturer  xc nh a ch ca nh my sn xut.\r\n    function createMilkBox(\r\n        uint256 _batchId,\r\n        string memory _serialNumber,\r\n        string memory _boxName,\r\n        string memory _manufacturingDate,\r\n        string memory _expirationDate,\r\n        string memory _manufacturer,\r\n        string memory _distributorAddress\r\n    ) public {\r\n        require(participants[msg.sender].isActive, \"Participant khong active\");\r\n        // Kim tra _manufacturer  c ng k v c role MANUFACTURER.\r\n        require(participants[msg.sender].isActive, \"Manufacturer khong active\");\r\n        require(\r\n            keccak256(bytes(participants[msg.sender].role)) ==\r\n                keccak256(bytes(\"MANUFACTURER\")),\r\n            \"Dia chi khong phai Manufacturer\"\r\n        );\r\n\r\n        require(milkBatches[_batchId].batchId != 0, \"Batch khong ton tai\");\r\n        // L sa phi khc trng thi Created ( c ph duyt bi Nutrition).\r\n        require(\r\n            milkBatches[_batchId].status != BatchStatus.Created,\r\n            \"Batch chua duoc phe duyet boi Nutrition\"\r\n        );\r\n        require(\r\n            bytes(milkBoxes[_serialNumber].serialNumber).length == 0,\r\n            \"MilkBox da ton tai\"\r\n        );\r\n\r\n        milkBoxes[_serialNumber] = MilkBox({\r\n            serialNumber: _serialNumber,\r\n            batchId: _batchId,\r\n            processingApproved: false,\r\n            transportApproved: false,\r\n            distributorAddress: _distributorAddress,\r\n            status: MilkBoxStatus.Created,\r\n            owner: _manufacturer,\r\n            manufacturer: _manufacturer,\r\n            boxName: _boxName,\r\n            manufacturingDate: _manufacturingDate,\r\n            expirationDate: _expirationDate\r\n        });\r\n        emit MilkBoxCreated(_serialNumber, _batchId);\r\n    }\r\n\r\n    // 4. FOOD_SAFETY_AUTHORITY ph duyt MilkBox => processingApproved = true.\r\n    function approveProcessingBox(string memory _serialNumber) public {\r\n        require(participants[msg.sender].isActive, \"Participant khong active\");\r\n        require(\r\n            keccak256(bytes(participants[msg.sender].role)) ==\r\n                keccak256(bytes(\"FOOD_SAFETY_AUTHORITY\")),\r\n            \"Chi cho phep FOOD_SAFETY_AUTHORITY\"\r\n        );\r\n        require(\r\n            bytes(milkBoxes[_serialNumber].serialNumber).length != 0,\r\n            \"MilkBox khong ton tai\"\r\n        );\r\n\r\n        milkBoxes[_serialNumber].processingApproved = true;\r\n        milkBoxes[_serialNumber].status = MilkBoxStatus.Approved;\r\n        emit ProcessingBoxApproved(_serialNumber);\r\n    }\r\n\r\n    // 5. DISTRIBUTOR cp nht MilkBox khi nhn hp sa.\r\n    function updateDistributor(\r\n        string memory _serialNumber,\r\n        string memory _distributorAddress,\r\n        string memory _owner\r\n    ) public {\r\n        require(participants[msg.sender].isActive, \"Participant khong active\");\r\n        require(\r\n            keccak256(bytes(participants[msg.sender].role)) ==\r\n                keccak256(bytes(\"DISTRIBUTOR\")),\r\n            \"Chi cho phep DISTRIBUTOR\"\r\n        );\r\n        require(\r\n            bytes(milkBoxes[_serialNumber].serialNumber).length != 0,\r\n            \"MilkBox khong ton tai\"\r\n        );\r\n\r\n        milkBoxes[_serialNumber].distributorAddress = _distributorAddress;\r\n        milkBoxes[_serialNumber].owner = _owner;\r\n        milkBoxes[_serialNumber].status = MilkBoxStatus.InTransit;\r\n        emit DistributorUpdated(_serialNumber, _owner);\r\n    }\r\n\r\n    // 6. TRANSPORT_AUTHORITY ph duyt vn chuyn MilkBox => transportApproved = true.\r\n    function approveTransportBox(string memory _serialNumber) public {\r\n        require(participants[msg.sender].isActive, \"Participant khong active\");\r\n        require(\r\n            keccak256(bytes(participants[msg.sender].role)) ==\r\n                keccak256(bytes(\"TRANSPORT_AUTHORITY\")),\r\n            \"Chi cho phep TRANSPORT_AUTHORITY\"\r\n        );\r\n        require(\r\n            bytes(milkBoxes[_serialNumber].serialNumber).length != 0,\r\n            \"MilkBox khong ton tai\"\r\n        );\r\n\r\n        milkBoxes[_serialNumber].transportApproved = true;\r\n        emit TransportBoxApproved(_serialNumber);\r\n    }\r\n\r\n    // 7. RETAILER cp nht trng thi MilkBox (chuyn sang ArrivedAtRetailer hoc Sold).\r\n    function updateBoxStatusAtRetail(\r\n        string memory _serialNumber,\r\n        MilkBoxStatus _newStatus\r\n    ) public {\r\n        require(participants[msg.sender].isActive, \"Participant khong active\");\r\n        require(\r\n            keccak256(bytes(participants[msg.sender].role)) ==\r\n                keccak256(bytes(\"RETAILER\")),\r\n            \"Chi cho phep RETAILER\"\r\n        );\r\n        require(\r\n            bytes(milkBoxes[_serialNumber].serialNumber).length != 0,\r\n            \"MilkBox khong ton tai\"\r\n        );\r\n\r\n        milkBoxes[_serialNumber].status = _newStatus;\r\n        emit BoxStatusUpdated(_serialNumber, _newStatus);\r\n    }\r\n\r\n    // 8. Ngi tiu dng: Ly thng tin chi tit ca MilkBox v MilkBatch.\r\n    // hm ny tr v mt struct MilkBoxDetail gom gn tt c thng tin cn thit.\r\n    function getMilkBoxDetails(\r\n        string memory _serialNumber\r\n    ) public view returns (MilkBoxDetail memory) {\r\n        MilkBox memory box = milkBoxes[_serialNumber];\r\n        require(bytes(box.serialNumber).length != 0, \"MilkBox khong ton tai\");\r\n        MilkBatch memory batch = milkBatches[box.batchId];\r\n        MilkBoxDetail memory detail = MilkBoxDetail({\r\n            serialNumber: box.serialNumber,\r\n            batchId: box.batchId,\r\n            processingApproved: box.processingApproved,\r\n            transportApproved: box.transportApproved,\r\n            distributorAddress: box.distributorAddress,\r\n            boxStatus: uint8(box.status),\r\n            owner: box.owner,\r\n            manufacturer: box.manufacturer,\r\n            boxName: box.boxName,\r\n            manufacturingDate: box.manufacturingDate,\r\n            expirationDate: box.expirationDate,\r\n            batchName: batch.batchName,\r\n            milkingDate: batch.milkingDate,\r\n            volume: batch.volume,\r\n            farmOwner: batch.farmOwner,\r\n            approvedBy: batch.approvedBy,\r\n            batchStatus: uint8(batch.status)\r\n        });\r\n        return detail;\r\n    }\r\n\r\n    // Struct MilkBoxDetail: Gom gn tt c thng tin ca MilkBox v MilkBatch cn thit cho ngi tiu dng.\r\n    struct MilkBoxDetail {\r\n        string serialNumber;\r\n        uint256 batchId;\r\n        bool processingApproved;\r\n        bool transportApproved;\r\n        string distributorAddress;\r\n        uint8 boxStatus;\r\n        string owner;\r\n        string manufacturer;\r\n        string boxName;\r\n        string manufacturingDate;\r\n        string expirationDate;\r\n        string batchName;\r\n        string milkingDate;\r\n        uint256 volume;\r\n        string farmOwner;\r\n        string approvedBy;\r\n        uint8 batchStatus;\r\n    }\r\n}\r\n",
  "sourcePath": "C:\\Users\\ASUS\\Downloads\\MilkSupplyChain\\MilkSupplyChain\\contracts\\MilkSupplyChain.sol",
  "compiler": {
    "name": "solc",
    "version": "0.8.0+commit.c7dfd78e.Emscripten.clang"
  },
  "schemaVersion": "3.4.16",
  "updatedAt": "2025-03-26T07:47:54.789Z",
  "networkType": "ethereum",
  "devdoc": {
    "kind": "dev",
    "methods": {},
    "version": 1
  },
  "userdoc": {
    "kind": "user",
    "methods": {},
    "version": 1
  }
}